:10000000602E0020914400001DA600007D440000E9
:100010007D4400007D4400007D4400007D440000DC
:100020000000000000000000000000002546000065
:100030007D440000000000008D4500007D4400006C
:10004000414800004148000041480000414800008C
:10005000414800004148000041480000414800007C
:10006000414800004148000041480000414800006C
:10007000414800004148000041480000414800005C
:1004800081F0004102E000BF83F0004330B54FEA45
:1004900041044FEA430594EA050F08BF90EA020FB2
:1004A0001FBF54EA000C55EA020C7FEA645C7FEA45
:1004B000655C00F0E2804FEA5454D4EB5555B8BF68
:1004C0006D420CDD2C4480EA020281EA030382EAD9
:1004D000000083EA010180EA020281EA0303362D6B
:1004E00088BF30BD11F0004F4FEA01314FF4801C3E
:1004F0004CEA113102D0404261EB410113F0004F50
:100500004FEA03334CEA133302D0524263EB430306
:1005100094EA050F00F0A780A4F10104D5F1200EA4
:100520000DDB02FA0EFC22FA05F2801841F10001FF
:1005300003FA0EF2801843FA05F359410EE0A5F1D3
:1005400020050EF1200E012A03FA0EFC28BF4CF004
:10055000020C43FA05F3C01851EBE37101F00045BA
:1005600007D54FF0000EDCF1000C7EEB00006EEBC7
:100570000101B1F5801F1BD3B1F5001F0CD3490851
:100580005FEA30004FEA3C0C04F101044FEA4452A8
:1005900012F5800F80F09A80BCF1004F08BF5FEA2F
:1005A000500C50F1000041EB045141EA050130BD0F
:1005B0005FEA4C0C404141EB0101013C28BFB1F521
:1005C000801FE9D291F0000F04BF01460020B1FA6C
:1005D00081F308BF2033A3F10B03B3F120020CDA3F
:1005E0000C3208DD02F1140CC2F10C0201FA0CF01D
:1005F00021FA02F10CE002F11402D8BFC2F1200C82
:1006000001FA02F120FA0CFCDCBF41EA0C01904037
:10061000E41AA2BF01EB0451294330BD6FEA040480
:100620001F3C1CDA0C340EDC04F11404C4F120026B
:1006300020FA04F001FA02F340EA030021FA04F37D
:1006400045EA030130BDC4F10C04C4F1200220FAD4
:1006500002F001FA04F340EA0300294630BD21FA12
:1006600004F0294630BD94F0000F83F4801306BFD8
:1006700081F480110134013D4EE77FEA645C18BFCC
:100680007FEA655C29D094EA050F08BF90EA020F63
:1006900005D054EA000C04BF1946104630BD91EA5B
:1006A000030F1EBF0021002030BD5FEA545C05D15E
:1006B0004000494128BF41F0004130BD14F580049D
:1006C0003CBF01F5801130BD01F0004545F0FE4111
:1006D00041F470014FF0000030BD7FEA645C1ABF46
:1006E000194610467FEA655C1CBF0B46024650EA7D
:1006F000013406BF52EA033591EA030F41F40021A9
:1007000030BD00BF90F0000F04BF0021704730B52E
:100710004FF4806404F132044FF000054FF0000103
:1007200050E700BF90F0000F04BF0021704730B5C4
:100730004FF4806404F1320410F0004548BF404299
:100740004FF000013EE700BF42004FEAE2014FEAEE
:1007500031014FEA02701FBF12F07F4393F07F4FC9
:1007600081F06051704732F07F4208BF704793F0CC
:100770007F4F04BF41F40021704730B54FF46074DF
:1007800001F0004521F000411CE700BF50EA0102E2
:1007900008BF704730B54FF000050AE050EA01028B
:1007A00008BF704730B511F0004502D5404261EBFB
:1007B00041014FF4806404F132045FEA915C3FF43C
:1007C000D8AE4FF003025FEADC0C18BF03325FEAD9
:1007D000DC0C18BF033202EBDC02C2F1200300FA8A
:1007E00003FC20FA02F001FA03FE40EA0E0021FAAF
:1007F00002F11444BDE600BF70B54FF0FF0C4CF49D
:10080000E06C1CEA11541DBF1CEA135594EA0C0F4E
:1008100095EA0C0F00F0DEF82C4481EA030621EA89
:100820004C5123EA4C5350EA013518BF52EA0335C4
:1008300041F4801143F4801338D0A0FB02CE4FF076
:100840000005E1FB02E506F00042E0FB03E54FF0A6
:100850000006E1FB03569CF0000F18BF4EF0010E9E
:10086000A4F1FF04B6F5007F64F5407404D25FEA9A
:100870004E0E6D4146EB060642EAC62141EA55514D
:100880004FEAC52040EA5E504FEACE2EB4F1FD0C8F
:1008900088BFBCF5E06F1ED8BEF1004F08BF5FEA0D
:1008A000500E50F1000041EB045170BD06F00046BF
:1008B00046EA010140EA020081EA0301B4EB5C046C
:1008C000C2BFD4EB0C0541EA045170BD41F4801164
:1008D0004FF0000E013C00F3AB8014F1360FDEBF89
:1008E000002001F0004170BDC4F10004203C35DA65
:1008F0000C341BDC04F11404C4F1200500FA05F3E8
:1009000020FA04F001FA05F240EA020001F0004288
:1009100021F0004110EBD37021FA04F642EB0601FE
:100920005EEA430E08BF20EAD37070BDC4F10C0428
:10093000C4F1200500FA04F320FA05F001FA04F2EC
:1009400040EA020001F0004110EBD37041F10001D8
:100950005EEA430E08BF20EAD37070BDC4F12005E3
:1009600000FA05F24EEA020E20FA04F301FA05F24B
:1009700043EA020321FA04F001F0004121FA04F2F3
:1009800020EA020000EBD3705EEA430E08BF20EAC3
:10099000D37070BD94F0000F0FD101F000464000FD
:1009A00041EB010111F4801F08BF013CF7D041EA7F
:1009B000060195F0000F18BF704703F00046520083
:1009C00043EB030313F4801F08BF013DF7D043EA54
:1009D0000603704794EA0C0F0CEA135518BF95EA0A
:1009E0000C0F0CD050EA410618BF52EA4306D1D191
:1009F00081EA030101F000414FF0000070BD50EAB0
:100A0000410606BF1046194652EA430619D094EA39
:100A10000C0F02D150EA013613D195EA0C0F05D123
:100A200052EA03361CBF104619460AD181EA030177
:100A300001F0004141F0FE4141F470014FF000002F
:100A400070BD41F0FE4141F4780170BD70B54FF0CA
:100A5000FF0C4CF4E06C1CEA11541DBF1CEA13554A
:100A600094EA0C0F95EA0C0F00F0A7F8A4EB05042C
:100A700081EA030E52EA03354FEA013100F0888023
:100A80004FEA03334FF0805545EA131343EA1263EC
:100A90004FEA022245EA111545EA10654FEA0026A1
:100AA0000EF000419D4208BF964244F1FD0404F55A
:100AB000407402D25B084FEA3202B61A65EB0305B6
:100AC0005B084FEA32024FF480104FF4002CB6EB73
:100AD000020E75EB030E22BFB61A754640EA0C00F3
:100AE0005B084FEA3202B6EB020E75EB030E22BF33
:100AF000B61A754640EA5C005B084FEA3202B6EB74
:100B0000020E75EB030E22BFB61A754640EA9C0032
:100B10005B084FEA3202B6EB020E75EB030E22BF02
:100B2000B61A754640EADC0055EA060E18D04FEAC0
:100B3000051545EA16754FEA06164FEAC30343EA60
:100B400052734FEAC2025FEA1C1CC0D111F4801F2D
:100B50000BD141EA00014FF000004FF0004CB6E726
:100B600011F4801F04BF01430020B4F1FD0C88BFC5
:100B7000BCF5E06F3FF6AFAEB5EB030C04BFB6EBD0
:100B8000020C5FEA500C50F1000041EB045170BDC3
:100B90000EF0004E4EEA113114EB5C04C2BFD4EBF0
:100BA0000C0541EA045170BD41F480114FF0000E74
:100BB000013C90E645EA060E8DE60CEA135594EAF0
:100BC0000C0F08BF95EA0C0F3FF43BAF94EA0C0FF3
:100BD0000AD150EA01347FF434AF95EA0C0F7FF468
:100BE00025AF104619462CE795EA0C0F06D152EABC
:100BF00003353FF4FDAE1046194622E750EA4106A0
:100C000018BF52EA43067FF4C5AE50EA41047FF4B0
:100C10000DAF52EA43057FF4EBAE12E74FF0FF3C15
:100C200006E000BF4FF0010C02E000BF4FF0010CE6
:100C30004DF804CD4FEA410C7FEA6C5C4FEA430C5F
:100C400018BF7FEA6C5C1BD001B050EA410C0CBFAE
:100C500052EA430C91EA030F02BF90EA020F002010
:100C6000704710F1000F91EA030F58BF994208BF77
:100C700090422CBFD8176FEAE37040F00100704734
:100C80004FEA410C7FEA6C5C02D150EA013C07D18B
:100C90004FEA430C7FEA6C5CD6D152EA033CD3D0D6
:100CA0005DF8040B704700BF8446104662468C46D0
:100CB0001946634600E000BF01B5FFF7B7FF002803
:100CC00048BF10F1000F01BD4DF808EDFFF7F4FF2C
:100CD0000CBF012000205DF808FB00BF4DF808EDB7
:100CE000FFF7EAFF34BF012000205DF808FB00BFDA
:100CF0004DF808EDFFF7E0FF94BF012000205DF8FC
:100D000008FB00BF4DF808EDFFF7CEFF94BF0120B0
:100D100000205DF808FB00BF4DF808EDFFF7C4FFA9
:100D200034BF012000205DF808FB00BF4FEA410CF2
:100D30007FEA6C5C02D150EA013C0AD14FEA430CD5
:100D40007FEA6C5C02D152EA033C02D14FF0000012
:100D500070474FF0010070474FEA410212F5001250
:100D600015D211D56FF47873B3EB625212D94FEAF2
:100D7000C12343F0004343EA505311F0004F23FADC
:100D800002F018BF404270474FF00000704750EA31
:100D9000013005D111F0004008BF6FF000407047EE
:100DA0004FF00000704700BF53B94AB9002908BF8F
:100DB00000281CBF4FF0FF314FF0FF3000F00CB89F
:100DC000ADF1080C6DE904CE00F010F8DDF804E098
:100DD000DDE9022304B07047704700BF034613F8F3
:100DE000012B002AFBD1181A013870472DE9F04772
:100DF00086468C460846089E154674461946002BC2
:100E000040F0C1808542B2FA82F245D94AB1C2F1BE
:100E1000200300FA02FC954094402EFA03F343EAC3
:100E20000C0C4FEA154EA8B2230CBCFBFEF80EFBCF
:100E300018CC08FB00F943EA0C43994528D9EB1874
:100E400008F1FF3704D2994502D9A8F102072B44D3
:100E5000A3EB0903A4B2B3FBFEFC0EFB1C330CFB9B
:100E600000F044EA0344A04214D92C190CF1FF33DA
:100E700004D2A04202D9ACF102032C44241A43EA62
:100E800007401EB1D440002334607360BDE8F08792
:100E90004746DDE76346F1E792BB431B01214FEA7A
:100EA000154EAFB2200CB3FBFEFC0EFB1C330CFB4B
:100EB00007F840EA0343984561D9EB180CF1FF307D
:100EC00004D2984502D9ACF102002B44A3EB0803ED
:100ED000A4B2B3FBFEFC0EFB1C330CFB07F744EA89
:100EE0000344A7424DD92C190CF1FF3304D2A74279
:100EF00002D9ACF102032C44E41B43EA0040C0E7F2
:100F0000C2F120039540944020FA03F12EFA03F336
:100F10004FEA154E9040AFB20343B1FBFEFC0EFB0F
:100F20001C10190C0CFB07F841EA0041884522D936
:100F300069180CF1FF3004D2884502D9ACF10200E7
:100F40002944A1EB08019BB2B1FBFEFC0EFB1C1176
:100F50000CFB07F743EA01439F420ED9EB180CF153
:100F6000FF3104D29F4202D9ACF102012B44DB1BBA
:100F700041EA004193E76046E3E76146F7E76046F0
:100F8000A4E76346B8E7834206D916B900210846AC
:100F90007CE7C6E900E0F9E7B3FA83F78FB983424B
:100FA00001D3724508D8BEEB020460EB03030120B5
:100FB0009C461EB9002169E73846FAE7C6E9004CAD
:100FC000F8E7C7F1200CBB400EFA07F522FA0CF443
:100FD0002EFA0CF1BA401C4320FA0CF3B8404FEA49
:100FE000144901431FFA84FEB3FBF9F809FB1830DA
:100FF0000B0C08FB0EFA43EA00439A4540D9E3186C
:1010000008F1FF3004D29A4502D9A8F10200234426
:10101000A3EB0A0389B2B3FBF9F809FB183308FB09
:101020000EFE41EA03418E452CD9611808F1FF33C9
:1010300004D28E4502D9A8F10203214443EA0040BC
:10104000A1EB0E01A0FB02984145CE46434602D3D8
:1010500006D14D4504D20138B9EB020E68EB04030A
:10106000002EA7D0B5EB0E0261EB030101FA0CFCD8
:1010700022FA07F3F9404CEA0303C6E9003199E785
:101080004046C5E74346D9E72DE9F0475E48A6B09C
:1010900009F062F95D480AF03DFB40B95C4809F08F
:1010A0005BF96FF01204204626B0BDE8F0870024FB
:1010B0004FF00008DFF888A1564DDFF888912046F0
:1010C000FFF730FB4CA3D3E9002306460F46FFF79A
:1010D00093FB42464B46FFF7B9FC41EC100B01F085
:1010E0006FFD002251EC100B4B4BFFF785FBFFF718
:1010F00033FE43A3D3E900232AF8020B39463046D6
:10110000FFF77AFB42464B46FFF7A0FC41EC100B81
:1011100001F056FD002251EC100B3F4BFFF76CFB2A
:10112000FFF71AFE0134202C25F8020BC7D18022CC
:101130004FF4FA634FF4FA56CDE904234FF40473E5
:10114000CDE90136354B0393304D0121AF68284678
:101150003B6801AA9847041E04DA2146304809F08A
:10116000FBF8A0E72F4B0393002128463B6801AA18
:101170009847041E02DA21462B48F0E702F04AFDA8
:10118000041E90DB02F046FD041E8CDB00220221CF
:1011900028463B699847041E02DA21462348DEE7C9
:1011A0003146234809F0D8F80024224E02F032FDDF
:1011B000011E0DDA204809F0CFF8AB6803220221A6
:1011C0001B69124898471D4809F0C6F800246AE7D1
:1011D0006A46284606A909F071FB4FF47A72013479
:1011E000B4FBF2F302FB1343002BDFD12146304660
:1011F00009F0B2F8DAE700BFC1966AFC3399A5405E
:10120000C1966AFC3399B5402CD60000F4C70000A3
:1012100054D60000881000200040CF403C0500203C
:1012200071D60000200500208ED60000ABD600004D
:10123000C1D60000F0D60000D8D60000E6D60000E7
:10124000C81000200040BF402DE9F04F82461746ED
:101250001C4600259FB00391387810B9284600F04D
:10126000A9BD252809D00399D0470028C0F2A2853E
:101270007B1C01350593059FEEE71822002110A87D
:101280000AF087FE7B78252B00F0BC80002398466F
:101290009E469C461846791C0E4611F8012B2B2AB7
:1012A00000F0E38000F2DA80202A00F0E180232AB7
:1012B00000F0E1802BB19DF8483043F040038DF8F9
:1012C0004830B8F1000F05D09DF8483043F02003B6
:1012D0008DF84830BEF1000F05D09DF8483043F03E
:1012E00010038DF84830BCF1000F05D09DF8483050
:1012F00043F008038DF8483028B19DF8483043F09A
:1013000004038DF848309DF8483003F04401442927
:1013100003D16FF386138DF848309DF848302A2AA0
:1013200043F080030E968DF8483040F0A9809DF878
:10133000493043F001038DF84930731C1A782E2A86
:101340000CBF012100219DF8492061F341028DF875
:1013500049200CD15A1C0E925A782A2A40F0A080BB
:101360009DF84920023342F004028DF849201A7892
:101370006C2A00F0C18000F2A380682A00F0A980E6
:101380006A2A00F0C2804C2A00F0C78013F8012BB3
:10139000782A05938DF84B2000F209816D2A00F21E
:1013A000C980692A00F20381572A00F2E280412AAB
:1013B00004D0A2F14503022B00F2F98004219DF82C
:1013C0004A3002F0DF02A2F1410961F30203D9F1D0
:1013D00000029DF8491042EB090262F3C7110A06A8
:1013E0008DF84A308DF84910CBB200F11F8103F01F
:1013F0007802182A40F009816FF3C6038DF849304E
:101400000023F8E08DF84B30BB1C05939DF8493064
:101410009DF84A20DE0702F0070040F1098154F8E8
:10142000041B0029049108DA9DF8481041F00401DA
:101430008DF84810049949420491590740F1008100
:1014400054F8046B002E80F2FF809DF849306FF352
:1014500041038DF849304FF0FF36F5E02D2A0DD0CD
:10146000302A7FF427AF012316E74FF0010C13E772
:101470004FF0010E10E74FF001080DE701200BE7D8
:101480000EA802F0FFFB0E9BB3423FF457AF9DF84E
:1014900048201390C00F60F341028DF848204DE7BB
:1014A0000EA802F0EFFB9DF848301490C3F3400201
:1014B00042EAD07262F341038DF848300E9B56E742
:1014C000742A26D07A2A7FF461AF06219DF849203C
:1014D0000CE05A78682A9DF8492006D1012161F371
:1014E000C6028DF84920023350E7022161F3C6029B
:1014F0008DF84920013349E75A786C2A9DF8492034
:1015000001D10421EBE70321F0E705219DF84920F3
:10151000ECE707219DF84920E8E7BDF8482022F4D0
:10152000F04222F0020242F4804242F00202ADF8A0
:101530004820DFE76E3AD3B201229A4040F282435C
:101540001A429DF8493039D112F0240F61D1D107E8
:101550002DD503219DF84A2003F07803A3F140081C
:1015600061F30202D8F100038DF84A2043EB08032F
:1015700041E00120A2F15801C9B200FA01F111F4D1
:10158000624F7FF41BAF40F6010319429DF84930CA
:101590001AD111F4043F0AD09DF84A2060F30202E8
:1015A00003F07803402B8DF84A207FF429AF9DF893
:1015B000483043F001038DF8483021E702219DF8BF
:1015C0004A2061F30202EBE702209DF84A1003F083
:1015D000780360F30201402B8DF84A1002BF9DF89A
:1015E000481041F001018DF84810632A7FF408AFDC
:1015F000003B18BF01239DF84820C2F340010B4374
:1016000063F341028DF8482000E713F0380FCED184
:10161000F6E603219DF84A2013F0780F61F30202E9
:1016200014BF012300238DF84A20E4E70123E2E7F9
:101630009DF948100029ACBF4FF0FF311399FBE62C
:101640009E077FF508AF149E00230428CDE91333CD
:101650009DF8493007D1990705D49DF94910002913
:10166000ACBF06260D2602F00702012AC3F3C3030E
:1016700032D1DA1E042A04D8DFE802F020454520E2
:1016800020002268012B4FEAE271CDE910211BD125
:101690009DF94020D117CDE9102104349DF8482050
:1016A000069292074FD03A465046059B039908F0A0
:1016B00099FE0028C0F27E830544DCE554F8042B33
:1016C000D117CDE91021E9E7022BE6D111B242F39F
:1016D000C032CDE91012E0E7022A24D1DA1E042A32
:1016E00004D8DFE802F0181010181800012B4FF092
:1016F000000154F8042B14D0022BCDE91021CDD1D8
:1017000092B21092CAE7073424F00704F4E8020109
:10171000CDE91001C2E754F8042B10920022119277
:10172000BCE7D2B2CDE7042A08D1073424F007047D
:10173000D4E900010834CDE91001AFE7032AADD1A7
:1017400054F8042BDDE79DF84B80B8F1780F3FF695
:1017500092ADB8F1570F5CD8B8F1250F00F0A48016
:10176000B8F1240F7FF687ADB8F1410F04D0A8F18E
:101770004503022B3FF67FADDDE91023002BC0F2BD
:101780004D810699080700F14C81C1F300194FEA19
:101790004919C3F30A51C3F31303002940F04481EC
:1017A00052EA030014BF4FF0010C4FF0000CD802B6
:1017B00040EA5250D702CDE90C70B8F1460F47EA23
:1017C000010740EAE17008BF4FF06608384300F0B7
:1017D000B781BCF1000F10D01B0343EA125317036B
:1017E0003A4618464FF0000C002880F25681BCF1B2
:1017F000000F40F05981CDE90C730D9BA1F2FE3B27
:1018000043F000430D930021DDE90C230F46052032
:1018100060E1A8F15802202A3FF62DAD01A151F850
:1018200022F000BFEF1900007712000077120000CD
:101830007712000077120000771200007712000084
:10184000771200007712000079170000771200006D
:101850009B190000AF1900007917000079170000EC
:101860007917000077120000AF190000771200000E
:10187000771200007712000077120000F5190000BF
:10188000EF1900003F1900007712000077120000E6
:10189000B918000077120000EF190000771200005D
:1018A00077120000EF19000040460399D047002846
:1018B000C0F280820135DEE4002E109F3BDB314612
:1018C00038460AF081FC002F3FF4D5AC4FF00009F8
:1018D0003E18F31B9DF84A2012F01001069100F00B
:1018E0005E82023312F04002DDF84C80089218BF8D
:1018F000149A434418BF9B18049ACDF81C80002A00
:1019000040F36882D31A9DF8482004935007C2F32D
:10191000800B00F15F82510640F14F82B9F1000F58
:1019200007D048460399D0470028C0F24382D946E1
:101930000135302242E23846FFF750FAC6E71098E8
:10194000002800F027820DF175030093002117ABEA
:1019500012AA02F0ADF94FF000090746BDF84A306F
:1019600003F0EF0343F4F04343F01003ADF84A30C3
:10197000002E0CDB9DF848200DF17503DB1B6FF387
:1019800086129E428DF8482001D9F31A1393002F36
:101990003FF471AC0DF175066DE0109B4FF000093E
:1019A0008DF85C300DF15D06012317AF92E7069BC1
:1019B0001F0754BFC3F300194FF02B09DDE91023B3
:1019C00058BF4FEA4919002B06DA4FF02D09524251
:1019D00063EB4303CDE91023DDE910010DF175033D
:1019E000009312AA17AB02F063F90746C0E74FF065
:1019F0000009F1E7109A072B3FF63DACDFE803F052
:101A00000C04060C08080C0C157034E4158032E444
:101A1000EB17C2E900532EE415602CE44FF02D09BA
:101A2000B7E64FF02B09B4E640F2FF70814231D1A6
:101A3000A34908F101085FFA88F811F80810134368
:101A400001F003011ED101290BBF492369234E2157
:101A50006E210CBF462266228DF85C309DF848301E
:101A60008DF85D106FF386138DF85E208DF8483089
:101A70000DF15F0617AFF31BB9F1000F3FF42AAF6A
:101A8000013327E7012915BF6E234E236121412130
:101A90001A46E1E74FF0000C89E692184FF0010C6E
:101AA00001F1FF3140419FE6CDE90C20A5E6520847
:101AB00042EAC3725B08B3F1333F59460BF1010BA5
:101AC000F5D201F1020B012100FB03FCA2FB002374
:101AD000013F63441BF1020FE9DB09B1CDE90C239F
:101AE000DDE90C32BBF1000F2DDCCBF10401A1F1DB
:101AF00020000BF11C0B02FA0BFB22FA00F0CA408B
:101B0000CB40079208F0DF0243EA0B03472A43EA7F
:101B100000037BD1F91C01DBBE422ADAA8F10208DE
:101B2000002E5FFA88F87ADD9DF84820013E920683
:101B300075D4B6F1000B18BF4FF0010B721C26E0F4
:101B40004FF0000B5FE6023342F100020CA80BF1EC
:101B5000FF3B0137CDE90C3208F015FCDDE90C3212
:101B6000DB185241002A0BF1FF3BF9DACDE90C32C8
:101B7000B6E79DF84820F61B90064DD4B6F1000B51
:101B800018BF4FF0010BF2194FF066084AD4102A23
:101B9000A8BF10229FED487B10208DED0E7B0B908F
:101BA000DDE90E01002A3FD1079A1B1842EB010123
:101BB000B1F1805F47D2CDE90C31069BB8F1660FD9
:101BC00003F0200240F0C680002F47DC30238DF860
:101BD0005C30002A76D1002E40F3BD812E238DF893
:101BE0005D3087B17B42B342A8BF3346002B1393CD
:101BF000A6EB0306D4BF002301239DF84A2063F31C
:101C000045128DF84A200DF15E0340E0B8F1660FF1
:101C10004FF0000BB7D091E74FF0000BB3E74FF058
:101C2000000B8BE70022B5E7400840EAC170490885
:101C3000CDE90E010EA8CDE9082308F0A4FB089A0F
:101C4000099B013AACE75B0843EAC1730CA8490859
:101C5000CDE90C31013708F096FBAEE717AB0B99D5
:101C600000290BDD0BA90CA8CDE9063208F0A3FB77
:101C7000069B013F079A03F8010BF0D11397AAB90D
:101C8000002E40F366812E2103F8011B0027002E51
:101C900021DD0B9A002A1EDD0BA90CA8069308F083
:101CA0008AFB069B013E03F8010BF0E72E2203F8A6
:101CB000012BEBE7AFF300800000000000000008FC
:101CC00077DC00002E238DF85D30002F9BD0002E96
:101CD00088DC0DF15E03BBF1000F4FD114961E4658
:101CE00008F0DF03452B24D1002FBABF7F422D23FC
:101CF0002B23632FC8BF64227370C4BFB7FBF2F3FA
:101D000002FB13774FF00A02C8BF03F13001B7FBA3
:101D1000F2F3C8BFB17003F1300102FB137386F810
:101D2000008003F13003D4BF023603363170737084
:101D30000236139B002B2BDC149B002BD4BF0023FB
:101D400001239DF84A2063F3861200238DF84A2070
:101D500033708FE60BA90CA8069208F02CFB069AAC
:101D600030288DF85C0018BF07F1FF3712B9002E3C
:101D700040F3F1802E238DF85D3044E71E4616F8BF
:101D8000012C013B302AF9D02E2A08BF1E46A7E7B6
:101D90000123D6E7714E81460523771F9AE5110787
:101DA00048BF01339EE5104609920399D0470028A9
:101DB000099A05DA1FB0BDE8F08F2022DDF810B0D7
:101DC000594600290BF1FF3BEDDC049BCDF810B028
:101DD0002B445D1AB9F1000F05D048460399D0474E
:101DE0000028E7DB0135089B002B77D09DF94930AF
:101DF000002B28DB3B46DFF8689118789B4619F8E2
:101E00000020013352073FD49DF84A30EF1B98065B
:101E10005F4407D44246002A08F1FF383BDC079BA9
:101E20003B449F1A9BF800002E280AD10399D04703
:101E30000028BFDBB8F1000F07F1010731DC0BF11F
:101E4000010B5D4638E0B94699F80000C846702895
:101E500009F1010913D1EF1B149D47443D44EB1BCD
:101E6000002B33DC334642465046039908F0BAFA59
:101E700000289FDB3844049E0546064464E003992D
:101E8000D0470028E0DA95E706930399D047002869
:101E9000069BB2DA8EE730200399D0470028B9DAE2
:101EA00088E730200399D04708F1FF38C0E703994D
:101EB000D0470028FFF67EAF2878A84619F80030F2
:101EC00001355907F3D4A7EB0B07C5E73020039979
:101ED000D0470028FFF66EAF0137C0E79DF84A30C3
:101EE000DA0601D41B0706D530200399D047002815
:101EF000FFF660AF0135069B3BB103999DF84B009F
:101F0000D0470028FFF656AF0135A84406E0302040
:101F10000399D0470028FFF64DAF0135A8EB050324
:101F2000002BF4DC33463A465046039908F05AFA3F
:101F30000028FFF63FAF28449DE720200399D047B3
:101F40000028FFF637AF0135731B002BF5DCFFF7D8
:101F500092B91746BFE60DF15D03BCE606D7000057
:101F600078DC0000000000002DE9F04F476A97B0D0
:101F70008346209E08910C92129355EC104B8DEDE8
:101F8000000B7FB9102006F0F7FD0246CBF82400C5
:101F900020B9A74BEA21A74807F03CFDC0E901772B
:101FA0000760C760DBF82430196859B15A6801230B
:101FB000584693404A608B6007F04CFADBF82430B7
:101FC00000221A602B1EB7BF23F00043002301221A
:101FD0000193A8BF3360019F974BB8BF3260BB43EA
:101FE00019D142F20F73129A1360C7F313032343FC
:101FF00000F0DB85219B53B9904B21E0904B03937C
:102000000833219A1360039817B0BDE8F08F8B4B0B
:1020100003930333F5E79DED007B0022002351EC91
:10202000170B8DED0A7BFEF74FFE804650B1012362
:10203000129A1360219B13B1824B219A1360824B39
:102040000393E0E7C7F30A5614AA15A958469DED75
:102050000A0B07F087FC0290002E76D00B9BA6F2AD
:10206000FF36CDF84C80C3F3130343F07F53DDE913
:102070000A0143F4401319460022744BFEF704FA98
:1020800065A3D3E90023FEF7B7FB65A3D3E90023DB
:10209000FEF7FCF904460D463046FEF743FB62A30B
:1020A000D3E90023FEF7A8FB02460B46204629464B
:1020B000FEF7ECF904460D46FEF74EFE00220746F9
:1020C000002320462946FEF709FE40B13846FEF7B8
:1020D00029FB22462B46FEF7F7FD00B9013F162FDC
:1020E00052D85B4B03EBC703DDE90A01D3E90023B8
:1020F000FEF7F4FD002849D0013F00231193149B03
:102100009B1B5A1E4CBFC3F101030023079245BF1E
:102110000693002306930793002F39DB079B109744
:102120003B44079300230993089B092B66D8052B92
:10213000C5BF043B002401240893089B023B032BEA
:1021400067D8DFE803F02D3A3859DDE914631E44FF
:1021500006F23243202BC9BFC3F14003C3F1200371
:102160009F4006F21243D8BF04FA03F006F1FF368F
:10217000C4BF24FA03F347EA0300FEF7C3FA0122BF
:10218000A1F1F873139276E70123B7E71190B6E750
:10219000069BDB1B06937B42099300231093C3E746
:1021A00000230D930C9B002B56DC012399461A4605
:1021B00004930C920CE00123F3E700230D930C9B96
:1021C000FB1803F1010904934B46012BB8BF01230F
:1021D000DBF824000021042202F114059D423FD9BE
:1021E0004160584607F0F6F8039000283BD1194BA0
:1021F00002464FF4D571CEE60123DFE70124002328
:102200000D9408934FF0FF33002299460493122354
:10221000CFE701230D93F5E761436F63A787D23FB3
:10222000B3C8608B288AC63FFB799F501344D33FC5
:10223000B7DD0000CEDD00000000F07FB3DD000060
:10224000AADD00005EDC00005DDC00000000F83F5D
:1022500050D1000042DE00000C9B99460493B7E782
:1022600001315200B8E7DBF82430B9F10E0F039AC0
:102270001A606FD8002C6DD0002F36DD07F00F02EA
:10228000A04BF8054FEA271403EBC20393ED007B44
:102290008DED0E7B17D59C4B04F00F044FF0030817
:1022A000D3E90823DDE90A01FEF7D0FBCDE90001FF
:1022B000954D5CB9DDE90E23DDE90001FEF7C6FBB3
:1022C000CDE900012BE04FF00208F1E7E10709D565
:1022D00008F10108DDE90E01D5E90023FEF78CFACB
:1022E000CDE90E0164100835E3E700F007817C4278
:1022F000844B854D4FF0020804F00F02241103EBCC
:10230000C203DDE90A01D3E90023FEF775FA0023D1
:10231000CDE90001002C40F0E580002BD0D1119BCD
:10232000DDE90045002B00F04C810022774B204670
:102330002946FEF7D3FC002800F04381B9F1000FD5
:1023400000F03F81049B002B00F3E480DDE90A34B8
:10235000CDE90034159B002B02DB0E2F40F34282A7
:102360000D9A002A40F06782099C0025DDF818804C
:10237000B8F1000F0DD0079B002B0ADD4345069AEC
:10238000A8BF4346D21AA8EB03080692079AD31AAD
:102390000793099B0BB30D9B002B00F0A682002C2A
:1023A00000F0A18229462246584607F07DF9029A9C
:1023B00001460546584607F0CDF8029906465846AC
:1023C00007F048F8099B1B1B099300F09182099ABA
:1023D0003146584607F068F902900121584607F047
:1023E000A3F8109B0446002B00F084821A46014695
:1023F000584607F059F9089B0446012B03DC009B63
:10240000002B00F07C820026236904EB830318690B
:1024100009F081FFC0F120001096079B184410F0CE
:102420001F0000F09182C0F12003042B40F3818251
:10243000C0F11C00069B034480440693079B0344A1
:102440000793069B002B05DD1A460299584607F0B4
:1024500085F90290079B002B05DD21461A46584658
:1024600007F07CF90446119B002B00F07682214690
:10247000029809F09FFF002880F26F8200230A2251
:102480000299584607F008F80D9B7E1E0290002B1B
:1024900000F05C82002329460A22584606F0FCFF21
:1024A000049B0546002B03DC089B022B00F35E8295
:1024B000B8F1000F05DD29464246584607F04EF9AF
:1024C0000546109B002B00F0D0826968584606F044
:1024D00081FF0746002840F07F820D4B024640F204
:1024E000EA2158E5E20706D508F10108D5E90023FD
:1024F000FEF782F90123641008350BE74FF002085C
:102500000DE700BF50D1000028D100000000F03FCF
:1025100042DE000020460022AC4B2946FEF76CF953
:102520007E1E08F10108049CCDE900014046FEF73B
:10253000F9F8DDE90023FEF75FF9A54B0022FDF76E
:10254000A5FFA1F15073CDE90E010F93002C3BD1F3
:102550000022A04BDDE90001FDF796FF02460B4685
:10256000CDE90023DDE90E23FEF7D6FB002840F07D
:102570005781DDE90E2101F10043DDE90001FEF79D
:10258000ADFB00283FF4E2AE002425460C9BDDF8AD
:102590000CA0DE434FF000082146584606F05AFFD3
:1025A000002D00F0A980B8F1000F05D0A84503D098
:1025B0004146584606F04EFF2946584606F04AFF67
:1025C0009AE03E464C46B1E7834B03EBC40353E924
:1025D0000201039B1C440D9B002B4AD002460B4674
:1025E00000207E49FEF732FADDE90E23FDF74CFFAD
:1025F000DDF80CA0CDE90E01DDE90001FEF7ACFB32
:102600000546FEF78FF8024630350B46DDE900013E
:10261000FDF73AFF0AF8015B02460B46CDE90001DF
:10262000DDE90E01FEF778FB002865D100206C493A
:10263000DDE90023FDF728FF02460B46DDE90E0128
:10264000FEF76AFB002840F00D81A24500F0EA8009
:1026500000225E4BDDE90E01FEF7CEF800225B4B57
:10266000CDE90E01DDE90001FEF7C6F8CDE9000174
:10267000C2E7DDE90E23FEF7BFF8A046DDF80CA0A7
:10268000CDE90E01DDE90001FEF766FB0546FEF728
:1026900049F8024630350B46DDE90001FDF7F4FE4E
:1026A0000AF8015B02460B46A245CDE900234FF034
:1026B000000223D1494BDDE90E01FDF7E7FE02469A
:1026C0000B46DDE90001FEF727FB002840F0CA8039
:1026D00000204249DDE90E23FDF7D6FE02460B46F7
:1026E000DDE90001FEF7FAFA70B1C24608F1FF38E1
:1026F0001AF8013C302BF8D0374655E0334BFEF743
:102700007BF8CDE90001BDE7DDE90A34CDE900340D
:10271000159B002BFFF628AE0E2F3FF725AE2E4B54
:1027200003EBC70393ED007B0C9B002B8DED047B2B
:1027300002DAB9F1000F64D0DDF80CA0DDE9004544
:10274000DDE9042320462946FEF780F9FEF704FB65
:102750000646FDF7E7FFDDE90423FEF74DF80246E4
:10276000204606F130040B462946FDF78DFE0AF897
:10277000014B039C02460B46AAEB0404A14540F022
:102780008280FDF783FE04460D46DDE90423FEF753
:10279000C3FA002865D120462946DDE90423FEF767
:1027A00093FA08B1F3075CD40299584606F052FE3A
:1027B000002301378AF80030129B1F60219B002BF9
:1027C0003FF421ACC3F800A01DE400BF000024408A
:1027D00000001C400000144050D100000000E03F09
:1027E0000000F03FA24B03EBC70393ED007B0C9B73
:1027F000002B8DED047B9FDAB9F1000F9CDC7FF498
:10280000C3AE00229B4BDDE90401FDF7F5FFDDE9D6
:102810000023FEF777FA044600287FF4B5AE3E4663
:102820002546B4E0DDE90A34CDE90034159B002BE0
:1028300001DB0E2FD6DD089A012A36DC139A82B30B
:1028400003F23343099CDDF81880069A01215846AB
:102850001A440692079A1A44079206F065FE054646
:1028600086E53E4653469A4613F8012D392A06D18D
:10287000039A9A42F7D13022039901360A701A78E6
:1028800001321A7038E700227B4BFDF7B5FF0022BA
:10289000002304460D46FEF717FA00283FF450AF18
:1028A00082E7149BC3F13603CCE709F1FF34099B9F
:1028B000A34208DBB9F1000FA3EB04040EDBDDF843
:1028C00018804B46C1E7099B109AE31A0994DDF87A
:1028D000188000241A444B461092B6E7069BA3EBDF
:1028E00009080023B1E7029E71E5099A029970E593
:1028F000029672E5089B012B17DC009BABB9019B8C
:10290000C3F313039BB9019B23F00046360D360534
:1029100036B1069B012601330693079B01330793CB
:10292000109B002B7FF470AD1096012075E50026FA
:10293000F6E73FF486AD1C33069A1A449844069293
:10294000079A1A4407927CE50346F4E7049B002BA0
:102950002BDC089B022B09DC27E0B9F1000F1DDC02
:10296000089B022B1ADD3E46CDF81090049B002BED
:102970007FF40CAE21460522584606F08DFD014637
:102980000446029809F016FD00287FF7FFADDDF838
:102990000CA0312301360AF8013BFBE50D9B3E46B6
:1029A000CDF81090002B7FF483AD039F2146029851
:1029B00009F016FC039B00F13009049A07F8019B0B
:1029C000FB1A9A4240F3CB8000230A220299584610
:1029D00006F062FD0290E9E72A6905F10C010C306E
:1029E0000232920009F0C8FA01223946584606F030
:1029F000B5FE039BA846054603F1010ADDE9032362
:102A000013440793009B03F0010309930AF1FF337A
:102A100021460298049309F0E3FB4146069000F139
:102A20003009029809F0C6FC2A4621460746584656
:102A300006F000FFC268014602B3584606F00AFDE0
:102A4000002F3ADA01220299584606F087FE214605
:102A5000029009F0AFFC002803DC29D119F0010F26
:102A600026D0B9F1390F1DD132E02846C1E700BFA9
:102A700050D1000000001440000024400A90029849
:102A800009F098FC0A990C90584606F0E3FC0C9A61
:102A90005ABB089B53B9099B43B9B9F1390F17D0F9
:102AA000002F05DD069B03F1310901E0002F2ADA32
:102AB000DDF810A00AF8019B6EE5089B3B4304D1AA
:102AC000009B03F00103002BBCD0B9F1390F36D1C4
:102AD000049F392307F8013BBA46013F1AF8013C2D
:102AE000392B5AD001333B7056E5002F06DB089B8B
:102AF0003B4306D1009B03F0010313B9002AA1DC7C
:102B0000D6E7002AE1DC079B57460AF8019C5345AB
:102B10002ED000230A220299584606F0BDFCA84593
:102B200002904FF000034FF00A02414658460BD185
:102B300006F0B2FC804605460AF1010A66E7DDF8B8
:102B400010A009F10109B5E706F0A6FC2946804668
:102B500000230A22584606F09FFC0546ECE7049B3A
:102B60004FF00008002BCCBF1F460127039B1F44DA
:102B700001220299584606F0F1FD2146029009F023
:102B800019FC0028A8DC02D119F0010FA4D1BA4623
:102B900017F8013D302BFAD0FEE4039BBB429BD1DA
:102BA0003123039A01361370F6E4219B002B7FF446
:102BB00025AA014BFFF744BAAADD0000000000007F
:102BC0001FB553EC102B23F000412548814207D854
:102BD00000209FED211B05B05DF804EB00F064BE02
:102BE0002048814208D910461946FDF74DFC41ECBA
:102BF000100B05B05DF804FB684600F035F800F0F6
:102C0000030001280CD0022811D0E8B901209DED65
:102C1000021B9DED000B00F047FE51EC100BE6E7A8
:102C20009DED021B9DED000B00F01AFAF5E79DEDFE
:102C3000021B9DED000B012000F036FE53EC102B23
:102C4000104603F10041D2E79DED021B9DED000B04
:102C500000F006FAF2E700BF0000000000000000EC
:102C6000FB21E93FFFFFEF7F2DE9F04F57EC106BA1
:102C700027F00048C44B8DB004469845049707D808
:102C80000022002380ED000BC0E90223002528E08C
:102C9000BE4B984578D8049B3046BD4D3946002B35
:102CA000ABA3D3E9002338DDFDF7EEFBA8450646CC
:102CB0000F461AD0A8A3D3E90023FDF7E5FB02468F
:102CC0000B468046894630463946FDF7DDFBA2A318
:102CD000D3E900230125FDF7D7FBC4E90089C4E946
:102CE000020128460DB0BDE8F08F9DA3D3E9002373
:102CF000FDF7CAFB06460F469BA3D3E90023FDF769
:102D0000C3FB02460B468046894630463946FDF7EE
:102D1000BBFB95A3D3E90023DCE7FDF7B7FBA84590
:102D200006460F4618D08CA3D3E90023FDF7AEFB6F
:102D300002460B468046894630463946FDF7A4FBDD
:102D400085A3D3E90023FDF7A1FB4FF0FF35C4E9CC
:102D50000089C4E90201C4E781A3D3E90023FDF798
:102D600095FB06460F4680A3D3E90023FDF78EFBB3
:102D700002460B468046894630463946FDF784FBBD
:102D800079A3D3E90023DEE7824B984500F2D18096
:102D900009F0A1FC57EC106B75A3D3E90023304672
:102DA0003946FDF729FD00227B4BFDF76FFBFDF750
:102DB000D3FF0546FDF7B6FC02460B46CDE90223DC
:102DC00063A3D3E90023FDF717FD02460B46304607
:102DD0003946FDF759FB82468B465FA3D3E90023B2
:102DE000DDE90201FDF708FD1F2D06460F460CDC4C
:102DF0006A1E6A4B53F82230434506D032463B46A2
:102E000050465946FDF740FB0EE03B4632465046E1
:102E10005946FDF739FB4FEA28530593C1F30A538E
:102E2000C3EB1853102B02DCC4E9000139E04CA3BA
:102E3000D3E90023DDE90201FDF7DEFC06460F467B
:102E400002460B4650465946FDF71EFB02460B460E
:102E50008046894650465946FDF716FB32463B46AA
:102E6000FDF712FB06460F463FA3D3E90023DDE939
:102E70000201FDF7C1FC32463B46FDF705FB024669
:102E80000B4606460F4640464946FDF7FDFA059AB1
:102E9000C1F30A53D31A312B20DCC246CB46C4E916
:102EA0000001D4E900895046594642464B46FDF799
:102EB000EBFA3B463246FDF7E7FA049B002BC4E9E8
:102EC0000201BFF60EAF09F10043C4F80080A06014
:102ED000636001F10043E3606D4202E726A3D3E99A
:102EE0000023DDE90201FDF787FC06460F46024696
:102EF0000B4640464946FDF7C7FA02460B46824656
:102F00008B4640464946FDF7BFFA32463B46FDF741
:102F1000BBFA06460F461AA3D3E90023DDE90201F6
:102F2000FDF76AFC32463B46FDF7AEFA06460F4611
:102F300064E71B4B984535D932463B463046394607
:102F4000FDF7A2FAC4E90201C4E900019EE600BF50
:102F500000004054FB21F93F3163621A61B4D03D57
:102F60000000601A61B4D03D7370032E8A19A33B30
:102F700083C8C96D305FE43F0000002E8A19A33B6F
:102F8000C14920259A837B39FB21E93F7BD9024047
:102F9000FB21F93FFB2139410000E03F70D40000E4
:102FA000FFFFEF7F4FEA285530460DF13009A5F2BB
:102FB0001645A8EB05514FF003080F46FDF7CCFE70
:102FC000FDF7B0FB02460B4630463946CDE90623F5
:102FD000FDF75AFA0022204BFDF70EFC0F4606467D
:102FE000FDF7BAFEFDF79EFB02460B46304639461A
:102FF00000260027CDE90823FDF746FA0022164BEC
:10300000FDF7FAFBCDE90A0132463B46C24608F11C
:10301000FF3879E90201FDF757FE0028F4D10F4B84
:103020002A46214606A8019302230093534600F046
:10303000DFF8049B0546002BBFF653AED4E9002110
:1030400001F10043C4E90023D4E9022101F1004366
:10305000C4E9022340E700BF00007041F0D4000043
:103060002DE9F74F57EC106B27F00048B8F1795F66
:103070008DED001B06D230463946FDF76DFE002867
:1030800000F0888032463B4630463946FDF7B4FBB7
:1030900004460D460022504BFDF7AEFB82468B46A0
:1030A000204629463EA3D3E90023FDF7A5FB3EA316
:1030B000D3E90023FDF7EAF922462B46FDF79CFBF6
:1030C0003BA3D3E90023FDF7DFF922462B46FDF7AA
:1030D00093FB39A3D3E90023FDF7D8F922462B4609
:1030E000FDF78AFB36A3D3E90023FDF7CDF922468D
:1030F0002B46FDF781FB34A3D3E90023FDF7C6F986
:1031000022462B46FDF778FB22462B46FDF774FB43
:1031100004460D4630463946DDE90023FDF76CFBD9
:103120000B46024629462046FDF7AEF92B4B0646D4
:103130000F46984510D802460B4650465946FDF7B3
:10314000A3F902460B4600202549FDF79DF941EC05
:10315000100B03B0BDE8F08F224B00240020204963
:103160009845224694BFA8F500151F4D2B46FDF744
:103170008BF92246804689462B4650465946FDF734
:1031800083F932463B46FDF77FF902460B4640463F
:103190004946DAE79FED0E0BDBE700BFAFF3008097
:1031A000D43888BEE9FAA8BDC4B1B4BD9EEE213EB4
:1031B000AD529C804F7E923E9015CB19A001FA3EF5
:1031C0007751C1166CC1563F4C5555555555A53FC5
:1031D000000000000000F03F0000E03F3233D33F2A
:1031E0000000F03F0000E93F0000D23F0000000077
:1031F0002DE9F04F2DED028BADF51B7D12F1140F73
:103200004FF000050993A8BFD41EBD4BB8BF0024E2
:10321000019122AEA6990A9053F821300493099B9C
:1032200003F1FF330693A4BF182394FBF3F46FF06C
:10323000170304FB033303EB020B049B069A03EB17
:103240000208A71AA79B9FEDAA8B03EB87094545A8
:1032500013DD22AA099B0DF5E47A4FF0000802EB7A
:10326000C305049B984530DCDDF828902F460026E6
:103270009FED9F7B8DED027B1BE0EF4207D459F859
:103280002500FDF74FFA0135E6E80201DFE751ECD2
:10329000180BF8E7D7E90023F9E802010136FDF73A
:1032A000ABFA02460B46DDE90201FDF7EFF8CDE986
:1032B0000201069B083F9E42ECDD08F1010808353B
:1032C0009DED027BAAEC027BCBE7049B0EAADDF806
:1032D000109002EB83030C93A79B03EB84030B93E7
:1032E0004FEAC9030DF1380A4F460D939AABD04609
:1032F00003EBC90313ED287B72AB03EBC9068DED1D
:10330000027B002FA6F1080677DC58469DED020BE4
:1033100000F006FC00224FF07F5355EC104B204686
:103320002946FDF769FA41EC100B00F079FB002209
:10333000744B51EC100BFDF75FFA02460B4620462A
:103340002946FDF7A1F80D460446FDF705FD089056
:10335000FDF7E8F902460B4620462946FDF794F8AA
:10336000BBF1000F06460F466BDD09F1FF310EABD6
:10337000CBF11800089C53F8213043FA00F21444B2
:1033800082409B1A0EAA089442F82130CBF1170212
:1033900013410293029B002B62DD089B00226FF019
:1033A0007F40013314460893914500F3B780BBF189
:1033B000000F07DDBBF1010F00F0C980BBF1020F68
:1033C00000F0D080029B022B4AD132463B460020BF
:1033D0004D49FDF759F806460F46002C40D0584697
:1033E0009FED450B00F09CFB3046394653EC102B0B
:1033F000FDF74AF806460F4632E00022434B013FF4
:10340000DDE90201FDF7F8F9FDF7A6FCFDF78AF901
:1034100000223F4B04460D46FDF7EEF902460B46EF
:10342000DDE90201FDF730F8FDF796FC294648F882
:10343000040B2046D6E90023FDF728F8CDE9020168
:103440005FE706D109F1FF330EAA52F82330DB15EE
:103450009FE700222F4BFDF755FC002843D1029037
:103460000022002330463946FDF72EFC002800F0EC
:10347000CB8009F1FF33002204998B427ADA002ACB
:1034800000F0958009F1FF390EABABF1180B53F842
:103490002930002BF6D058464E464FF0000ADFF890
:1034A0006CB09FED150B00F03BFB09F1010372AA14
:1034B0004FEAC30802EBC30755EC104B002E80F215
:1034C000DB804C46002CC0F20981134B4FF0000A00
:1034D0004FF0000B00261F4672ABA9EB040503EB6F
:1034E000C4030693EEE00223029356E7AFF3008095
:1034F0000000000000000000000000000000F03F9D
:10350000F8D50000000020400000F03F0000703EB1
:10351000000070410000E03F18D20000514651F811
:10352000043B54B96BB10132C3F18073914541F84A
:10353000043C0ADD0B680AF10801C31A41F8043C97
:10354000012301328A461C462EE701242FE709F1A8
:10355000FF320EAB53F82230C3F316030EA941F825
:1035600022302FE709F1FF320EAB53F82230C3F3BC
:103570001503F3E70EA951F82310013B0A437BE73B
:10358000013453F8042D002AFAD00D9B22AA09F128
:1035900001074C4403F51A730DEB0305099B4B44DB
:1035A000983D02EBC306BC4204DAA14698E60C9BA8
:1035B0000124E6E70B9B4FF0000853F82700FDF7C6
:1035C000B1F8DDF828909FEDAC7BE6E80201B24649
:1035D0008DED027B069B984505DD01379DED027B55
:1035E000A5EC027BDFE77AE90223F9E80201FDF7A7
:1035F00003F902460B4608F10108DDE90201FCF778
:1036000045FFCDE90201E5E7CBF1000047EC106B87
:1036100000F086FA00229A4B55EC104B20462946C2
:10362000FDF770FB00B30022964B20462946FDF7BC
:10363000E3F80BF1180BFDF78FFB0646FDF772F868
:1036400000228F4BFDF7D8F80B460246294620464C
:10365000FCF71AFFFDF780FB0EAB43F8290009F1D8
:10366000010943F8296016E720462946FDF774FB57
:103670000EAB43F829000EE70EAB53F82600013ECF
:10368000FDF750F822462B46FDF7B6F852465B464A
:1036900067E9020120462946FDF7AEF804460D46CB
:1036A0000CE706990136F1E802230691F7E80201DA
:1036B000FDF7A2F802460B4650465946FCF7E6FED7
:1036C00082468B46049B9E4201DCB542E9DA4AAB56
:1036D000013C03EBC505C5E900ABF3E6A69B022B55
:1036E0000BDC002B38DC5AD0089B03F007000DF5EB
:1036F0001B7DBDEC028BBDE8F08FA69B032BF3D1A5
:1037000008F51A73CA460DEB0304A4F5A474254604
:10371000BAF1000FA5F1080567DC4D46012DA4F1B3
:10372000080400F383804AAB0020002103EB080467
:10373000B9F1010F00F39880029BDDE94A78DDE9D9
:103740004C56002B40F0A080019BC3E90078C3E9F0
:103750000256C3E90401C7E74AAB4C4600200021EA
:103760009844002C32DA029B002B35D0024601F13E
:103770000043019C4CADC4E90023012402460B46E2
:10378000DDE94A01FCF780FEA14528DA029B13B16E
:1037900001F100431946019BC3E90201A4E74AABCA
:1037A000002000219844B9F1000F08DA029B13B100
:1037B00001F100431946019BC3E9000194E778E950
:1037C000022309F1FF39FCF761FEECE778E90223F7
:1037D000013CFCF75BFEC4E702460B46C9E7F5E88F
:1037E00002230134FCF752FECEE795ED007B0AF18F
:1037F000FF3A8DED047B95ED027BDDE9040153EC8E
:10380000172B8DED067BFCF741FE02460B46064664
:103810000F46DDE90401FCF737FEDDE90623FCF77E
:1038200035FEC5E90067C5E9020171E794ED007B4B
:10383000D4E902AB013D52465B4651EC170B8DEDCE
:10384000047BFCF723FE02460B4606460F46DDE9E5
:103850000401FCF719FE52465B46FCF717FEC4E96B
:103860000067C4E9020159E774E9022309F1FF394D
:10387000FCF70CFE5CE700BF000000000000000049
:10388000000070410000703E019B08F10044019A65
:103890001F605C609D6006F100431061D36001F120
:1038A0000043536120E700BF2DE9F04F55EC104B6A
:1038B00025F0004385B08046B3F1795F8DED021BA2
:1038C00005D220462946FDF747FA002852D0224665
:1038D0002B4620462946FCF78FFF82468B46024640
:1038E0000B4620462946FCF787FF42A3D3E9002375
:1038F000CDE9000150465946FCF77EFF3FA3D3E9CE
:103900000023FCF7C1FD52465B46FCF775FF3DA363
:10391000D3E90023FCF7BAFD52465B46FCF76CFF87
:103920003AA3D3E90023FCF7AFFD52465B46FCF710
:1039300063FF38A3D3E90023FCF7A8FD06460F4632
:10394000B8F1000F1BD102460B4650465946FCF712
:1039500053FF25A3D3E90023FCF796FDDDE90023FF
:10396000FCF74AFF02460B4620462946FCF78EFD2F
:1039700004460D4645EC104B05B0BDE8F08F002223
:103980001B4BDDE90201FCF737FF804689463246D2
:103990003B46DDE90001FCF72FFF02460B4640469F
:1039A0004946FCF771FD52465B46FCF725FFDDE911
:1039B0000223FCF769FD06460F460BA3D3E900235B
:1039C000DDE90001FCF718FF02460B463046394698
:1039D000FCF75CFD02460B4620462946FCF754FDE9
:1039E000C6E700BFAFF30080495555555555C53F53
:1039F0000000E03F7CD5CF5A3AD9E53DEB9C2B8ABD
:103A0000E6E55A3E7DFEB157E31DC73ED561C119BB
:103A1000A0012A3FA6F810111111813F00000000FB
:103A200051EC100BC1F30A532DE9F041A3F2FF361C
:103A30000C4605468046132E35DC002E17DA34A3DB
:103A4000D3E90023FCF722FD00220023FDF764F9EF
:103A500050B1002C56DA24F000442C430025AC422F
:103A60002D4C08BF4FF000442146284624E02B4F40
:103A7000374101EA070303431ED025A3D3E90023FE
:103A8000FCF704FD00220023FDF746F90028EBD0E7
:103A9000002C4FF00005BEBF4FF480133341E418F3
:103AA00024EA0704E0E7332E0ADDB6F5806F03D180
:103AB00002460B46FCF7EAFC41EC100BBDE8F08136
:103AC000A3F213434FF0FF37DF400742F4D010A3B7
:103AD000D3E90023FCF7DAFC00220023FDF71CF9F0
:103AE0000028C1D0002C0ADA142E01D1013406E0DE
:103AF000C6F134060123B3401D444545F6D325EAFB
:103B00000705B1E700252C46AEE700BFAFF3008004
:103B10009C7500883CE4377E0000F0BFFFFF0F007B
:103B200070B555EC104BC5F30A5206462B4692B9B8
:103B300025F00043234339D0334B20462946002249
:103B4000FCF75AFE314B04460D469E420FDA26A37F
:103B5000D3E900231FE040F2FF718A420BD12246D5
:103B600020462946FCF792FC04460D461EE0C1F3B0
:103B70000A520B46363A324440F2FE718A420DDD5B
:103B8000002D1BA1D1E9000102DA1BA1D1E900013E
:103B900017A3D3E90023FCF72FFEE5E7002A08DD91
:103BA00023F0FF4323F4E00343EA025545EC104BB6
:103BB00070BD12F1350F08DA002D0BA1D1E900011B
:103BC000C5DA0FA1D1E90001C1E723F0FF43363286
:103BD000204623F4E00343EA025500220C4B294619
:103BE000D9E700BFAFF3008059F3F8C21F6EA501FB
:103BF0009C7500883CE4377E9C7500883CE437FE69
:103C000059F3F8C21F6EA58100005043B03CFFFF7E
:103C10000000903C30B5A1B06B4600221946094C1B
:103C2000094834F9025B01321D8030F9025B202A19
:103C30005D8003F10403F4D18022044806F05EFEA7
:103C400021B030BDC810002088100020F4C700004B
:103C5000014B1B68184700BFF0000020014B1860A3
:103C6000704700BFF000002007B50B460021024658
:103C700000910348FDF7E8FA03B05DF804FB00BFCC
:103C8000513C0000F0B5024601680A270020074EAB
:103C90000B461C780131355D6D0701D41360F0BD12
:103CA00007FB0043A3F13000F2E700BF78DC00001F
:103CB0002DE9F84F15469A46D378234A6F2B12F810
:103CC00003B081460F460BF0030B2BD026D8582BA0
:103CD0000CBF10260A26DDF828803246002348460D
:103CE0003946FDF761F8092A08F1FF38D4B21ED829
:103CF0003034B145E4B277F1000788F8004001D3D1
:103D0000D04511D82B789B0605D5082E15D1AB7858
:103D100043F00803AB704046BDE8F88F03F0F703AB
:103D2000702BD5E70826D6E781460F46D5E7BBF1CD
:103D3000010F0CBF37345734DBE7102EEBD1AB78D3
:103D400043F01003E6E700BF78DC00002DE9F04700
:103D5000058B04462807904611D4022905F0070573
:103D600040F0CC80204606F054FB78B10138218B1E
:103D7000042811D8DFE800F0C2106D8595000129F4
:103D80000CBF45F0100545F02005258388F3118808
:103D9000BFF36F8FBDE8F08701F0070AAA4500F076
:103DA000A5800027B9463E46A368002B00F0BC80E2
:103DB00041F00801218388F31188BFF36F8FA16858
:103DC000002900F0BA800D68002900F0B680334663
:103DD00052462046D1F80480C047002D76D02B688B
:103DE00029461D46F0E701F007035A1F012A1BD898
:103DF000002221F00701062B276889B2C4E90022BE
:103E000009D13B4603E0628B013262831B68002BC1
:103E1000F9D141F002012046218306F0FAFA002888
:103E20007AD041F0200176E0042B0AD121F007017D
:103E300089B22046218306F0ECFA10B141F020014E
:103E40002183218B01F0070AAA454FD00027B946EC
:103E5000AAE7236921F0070141F00601062DD3F8F6
:103E6000009021832DD1B9F1000F3FD041F008011E
:103E7000218388F31188BFF36F8F20463949C847E3
:103E800029E021F00701236941F0040189B2042DE2
:103E9000D3F804902183E6D000274FF0040A3E4671
:103EA00082E721F00701236941F0050189B2052D60
:103EB000D3F808902183D6D000274FF0050A3E465C
:103EC00072E700274FF0060A3E466DE72B4687E76C
:103ED000B9F1000FD1D1EFF31188202383F31288B9
:103EE000BFF36F8F238B23F008032383258BEA0610
:103EF0002ED525F01003238305F007056669218B75
:103F0000002EBFF670AF00232768C4E9003321F00C
:103F1000070141F001012183218B4FF0000901F0DD
:103F2000070AAA457FF440AF002F9CD041F008015A
:103F3000218388F31188BFF36F8F002FC8D03D68AD
:103F4000394633465246204606F08FFA2F46F4E7AC
:103F5000AB067FF51BAF25F02003238305F0070593
:103F600000E700BF97A40000014B036000207047EA
:103F700058D2000008B5044806F0EEF9034806F0F0
:103F8000EBF9002008BD00BF07D7000040D70000B4
:103F900008B50348034A0021121A06F037FB08BD92
:103FA0001006002010110020074808B5074A0849EC
:103FB000121A06F02DFBBDE808400648064A0749DC
:103FC000121A06F025BB00BF60000020100600207A
:103FD00020DF0000600000206000002020DF0000E3
:103FE0002DE9F04107460C4686B000292FD0D1E9D3
:103FF00001231E48096806F0AFF9D4E90423E168FB
:104000001B4806F0A9F9E1691A4806F0A5F9264609
:104010000025DFF87080F36A29460493EB1C0393B4
:10402000B36A40460293AB1C0193736A1036009347
:1040300032696B1C043506F08FF9102DEBD1216E1F
:104040000D4806F089F9A1690C4806F085F9012FA1
:1040500005D1EFF305810A48103906F07DF92146B4
:10406000384606B0BDE8F04102F018BE6ED7000039
:104070009ED70000CED7000022D8000032D8000022
:1040800061D80000DED7000030BFFFF7FDBF00BFE2
:10409000054B9A699B689A421FBF044A536843F0D4
:1040A00080535360704700BF100A002000ED00E00D
:1040B00010B5204C204806F04FF9A36A990137D576
:1040C0001E4806F049F91E20A36ADA0103D51C48F0
:1040D00006F042F91F20174CA36ADB0203D51948EA
:1040E00006F03AF90220A36A1C0303D5164806F02D
:1040F00033F921200F4CA36A590303D5134806F066
:104100002BF92220A36A9A0303D5114806F024F95B
:104110002320084CA36ADB0303D50E4806F01CF9E4
:104120002420A36A6FEA03436FEA1343A36210BD1E
:104130001D20C9E700ED00E075D800008ED8000012
:10414000A2D80000BDD80000E8D8000007D90000C0
:104150002DD9000048D9000070B5244C06462448EB
:104160000D4606F0F9F8A36AD90435D5214806F0C2
:10417000F3F81720A36A1A0503D51F4806F0ECF8D8
:1041800018201A4CA36A9B050FD51C4806F0E4F8CA
:10419000A16BA36A180407D5194806F0DDF81EB113
:1041A000A36A23F40043A3621920104CA36A5905A3
:1041B00003D5144806F0D0F81A20A36ADA050DD505
:1041C000114806F0C9F81B20084A936A43F47F435C
:1041D000936200232B7070BD1620CBE7A36A9B046B
:1041E000F2D50A4806F0B8F81C20EDE700ED00E033
:1041F00074D900008BD900009DD90000B1D900000E
:10420000CBD90000E1D90000FDD9000016DA00008A
:1042100070B5264C064626480D4606F09DF8A36A62
:10422000D80640D5234806F097F81120A36A19074D
:1042300003D5214806F090F812201C4CA36A9A0777
:104240000FD51E4806F088F8616BA36A1B0607D5D8
:104250001B4806F081F81EB1A36A23F08003A36215
:104260001320124CA36ADE0703D5164806F074F833
:104270001420A36A9C0603D5134806F06DF8152098
:104280000A4B9A6AD10658BF9A6A9A6A920642BF46
:104290005A6A22F400525A629A6A42F0FF029A6203
:1042A00000232B7070BD1020C0E700BF00ED00E0C0
:1042B00046DA00005DDA00009DD9000091DA0000C6
:1042C000AADA0000C1DA000016DA00002DE9F04198
:1042D000574B05465F6800269CB0C7F3080486F379
:1042E0001188BFF36F8F02F07F43B3F17F4F06D188
:1042F00002F00C03082B12D14E4806F02DF80026D0
:1043000035464FF00008E31E8DF80780092B7ED854
:10431000DFE803F00A73776F7D7D7D7D7D7B10077D
:104320004CBF0D460126ECE74348414C06F014F81B
:104330008DF80780E36A9A0704D5404806F00CF828
:1043400000242FE0E36A002B01DA3D48F6E7E36A38
:104350005B00F5D53B4805F0FFFF6369AA6943F4AC
:1043600080736361BFF34F8FBFF36F8F636932F860
:10437000022C23F480736361BFF34F8FBFF36F8F01
:104380004DF602739A4208D0A36ADBB21BB3012038
:104390000DF10701FFF73CFF2DE029682A4805F0E1
:1043A000DBFF2C689DF8073093B96822294602A8E4
:1043B00007F0E2FD099BB6B3C3F3080222B96FEA26
:1043C00053236FEA43230993204602A9FFF708FE0F
:1043D0001CB0BDE8F081A36A13F47F4F05D0012023
:1043E0000DF10701FFF7B8FE05E0A36AB3F5803FC2
:1043F000A6D3FFF75DFE0446D4E700200DF10701C8
:10440000C8E700200DF10701ECE7104896E7104BD4
:1044100017F4F87F0F49104818BF1946A4F110028D
:1044200005F09AFF8CE723F4FF7323F00103CAE73A
:1044300000ED00E00FDB00003BDB000053DB000081
:1044400075DB000084DB0000A4DB0000C1DB0000A2
:10445000F6DA0000E1DA0000E6DB0000064B5A69FC
:1044600042F010025A615A6942F480625A615A69F4
:1044700022F008025A61704700ED00E0EFF3088077
:10448000EFF3098101B57246FFF720FF01BD00BFC0
:10449000002080F31488BFF36F8F002080F30A8818
:1044A00080F30B880F4880F3088801F0E5FC0020BA
:1044B0000D490860BFF34F8F00F02CF8202080F3E7
:1044C00011880A484FF40061401880F30988EFF31F
:1044D00014800221084380F31488BFF36F8F00F02B
:1044E00007F90000602E002094ED00E02015002068
:1044F000002318460649D1F89020C2F307229342C0
:1045000000DB7047C1F89830C1F8A0000133F6E72E
:1045100000ED00E010B572B6002484F31388FFF7B5
:10452000E7FF23464FF0FF300C4A03F1200101332F
:10453000102B42F82100F8D100234FF0FF30074A3A
:1045400003F160010133102B42F82100F8D162B66B
:10455000BFF34F8FBFF36F8F10BD00BF00E100E0CE
:10456000084B9B6883420BD1EFF3058343B1064BA5
:104570005A6842F080525A605A6A22F400425A62E3
:1045800003F0A8B9100A002000ED00E023498A6872
:1045900082F8CDE04FF030001044EFF3098C80E852
:1045A000F01F1EF0100F03D102F18C0080EC108A76
:1045B000202080F31288BFF36F8F194F4FF00066F1
:1045C0008A698A603E6092F9CDE0D2F884000023C7
:1045D000C2F8843080F311881EF0100F03D000233E
:1045E000E1EE103A03E002F18C0090EC108AEFF358
:1045F000148323F0040383F31488BFF36F8F02F155
:10460000300090E8F01F8CF3098802F1000004B537
:1046100006F00FF8BDE8044070470000100A0020C3
:1046200004ED00E01EF0040F0CBFEFF30880EFF381
:104630000980816911F8021C0229FFD001B5724678
:1046400005F0E8FF01BD00BF00B2002807DB012331
:104650004109034A00F01F00834042F821307047AF
:1046600000E100E000B200280CDB0122064943090A
:1046700000F01F008240203341F82320BFF34F8F0A
:10468000BFF36F8F704700BF00E100E0054B4209A8
:1046900053F82220012300F01F0003FA00F010401D
:1046A000704700BF00E100E000B2002801F1010105
:1046B000ACBF00F16040064B4FEA4111C9B2ABBF3D
:1046C00000F5614000F00F0080F8001319547047A6
:1046D00014ED00E0044B054A23F07F039360BFF321
:1046E0004F8FBFF36F8F70470000000000ED00E0B8
:1046F00008B5FFF7EFFF104BD3F8882022F47002C3
:10470000C3F88820D3F8882042F4A002C3F8882098
:104710004FF04042C3F83422BFF34F8FBFF36F8F87
:104720000023E1EE103AFFF733FCFFF73DFC00F009
:1047300077F802F077FB00BF00ED00E04FF47D4119
:10474000C0F8CC1042F8203C009B0B4942F81C3CBE
:10475000019B21F0010142F8183C029B42F8081C21
:1047600042F8143C4FF0807342F8043C0023203A96
:104770000265C0F88430704773A30000104B9B683B
:1047800083421AD1EFF30580B8B9EFF311812022EB
:1047900082F31288BFF36F8F1A7B22F002021A7322
:1047A000EFF3148323F0040383F31488BFF36F8FB4
:1047B00081F31188BFF36F8F70476FF0150070475A
:1047C000100A00200E461546002300B5E1EE103A0F
:1047D000EFF3148323F0040383F31488BFF36F8F84
:1047E000BFF36F8F0A4B9860436F83F30B882C469F
:1047F00086F309880020044B9847204600210022B8
:104800000023024C204700003FA6000073A30000D5
:10481000100A00201022014B1A61704700ED00E0E1
:104820000023202040F20F1210B5044CE118013390
:10483000934281F80003F9D110BD00BF00E100E010
:1048400008B5EFF30583064A103B02EBC30152F8AB
:10485000330049688847BDE80840FFF719BC00BF2E
:1048600010C800001FB5094C094A23460121094818
:1048700000F0FAF800230393074B0121E41A01A882
:104880000193029400F0FAF804B010BD00F0022089
:104890000000002058D200001006002010B50C7A4D
:1048A0000B6804F01F0223F01F031A43CB6864094E
:1048B00023F01F03054943EA440343F00103C1F811
:1048C0009800C1F89C20C1F8A03010BD00ED00E0B8
:1048D00010B5074BD3F89030C3F30723013B984240
:1048E00002D8FFF7DBFF10BD6FF01500FBE700BF3C
:1048F00000ED00E02DE9F04F0F46144606464FF05C
:1049000000084D4D85B0B84580F29280D6F80490ED
:10491000B9F1000F36D0B9F11F0F40F2878019F0BE
:104920001F0F40F08380D6F800A01AF01F0F7DD132
:10493000504605F0A7FE834609EB0A00013805F052
:10494000A1FE834572D11BF1160F6FD05C456DDD62
:10495000C5F898B0D5F89C10C5F898B0D5F8A03037
:1049600021F01F0143F01F0AD6E900321A44994290
:1049700002F1FF391ED1CA4508D131465FFA8BF0EA
:1049800005F089FE08F101080C36BCE73146C5F890
:1049900098B0D5F89C3022F01F0203F01F03134398
:1049A000C5F89C30E0B205F076FE10F1160F3DD050
:1049B000441CE7E7C5F898B0D5F8A020013B23F0E8
:1049C0001F0302F01F021343CA453146E0B2C5F887
:1049D000A030E8D005F05FFE10F1160F26D0C5F824
:1049E00098B0D5F89C209DF808300AF1FF3A62F3A0
:1049F00004038DF80830D5F8A0309DF808205B0836
:104A000063F347128DF80820D6E90032134400936F
:104A100023F01F035344A3EB0903013023F01F03CA
:104A20006946C0B20393FFF753FFBEE76FF015046A
:104A3000204605B0BDE8F08F00ED00E00522044BF4
:104A4000C3F89420BFF34F8FBFF36F8F704700BF41
:104A500000ED00E0BFF35F8F0022024BC3F894200B
:104A6000704700BF00ED00E010B5034C2278FFF75F
:104A700041FF207010BD00BF081100202DE9F74F45
:104A8000294D8A4606464FF00008AB46274FD045D1
:104A90001BDAD6F80490B9F1000F3FD03168084610
:104AA000019105F0EFFD0199044609EB0100013881
:104AB00005F0E8FD84424FF014021D4B08D002FBC4
:104AC00008F36FF015024BF8032003B0BDE8F08F38
:104AD00014F1160F2C60F8D01978A142F5DD02FB15
:104AE00008B0C7F89840C7F89840D7F89C4000F144
:104AF0000801007B64F304000871D7F8A0000C796A
:104B0000400860F347140C71D7F89C1021F01F0186
:104B10006960D7F8A01021F01F01296108F1010890
:104B200014350C36B3E700BF0809002000ED00E0A3
:104B300008110020F0B55249524CD1F89030256848
:104B4000C3F307239D4287B000F296800020FFF751
:104B500081FF4D4BC1F8C030854216D14B4C01A8A6
:104B60002570FFF701FA00250646494FAE4213D1E2
:104B7000002023784249D1F89020C2F307229342C3
:104B800074DBFFF75BFF002043E0616801EB00117D
:104B9000FFF784FE0130DFE70199280101EB0513DF
:104BA000DA683A40B2F5800F42D007D8B2F5801FDC
:104BB00015D0B2F5001F2ED00135D7E7B2F1006F46
:104BC00043D0B2F1805FF7D15A689B680958013B26
:104BD00022F01F00034423F01F03012032E05A6833
:104BE0009B680958013B22F01F00034401208446C2
:104BF00023F01F0340EA4C10CDE902218DF810008C
:104C000002A920780593FFF763FE00282ADA6FF0E7
:104C1000150007B0F0BD5A689B680958013B22F0A7
:104C20001F0003444FF0020C012023F01F03E1E7B3
:104C30005A689B680958013B22F01F000344062074
:104C400023F01F034FF0000CD4E75A689B68095803
:104C5000013B22F01F0003444FF0030C012023F01E
:104C60001F03C7E7237801332370A5E7C1F8983005
:104C7000C1F8A00001337EE74FF0FF30C9E700BF65
:104C800000ED00E064D20000AAFF440008110020FB
:104C90000000F0FF014B1860704700BFF8000020D3
:104CA000F8B506460D460024064FAC4208DA3B68CC
:104CB00098470A28305504F1010401D00D28F4D199
:104CC0002046F8BDF4000020F8B50D46094F461EF9
:104CD000C0F10104A3199D4201DC2846F8BD737898
:104CE0000A2B02D10D203B6898473B6816F8010F4C
:104CF0009847EFE7F800002010B5074C2368C2186A
:104D00000648C0F1005101F53C318A4236BF2260AD
:104D10004FF0FF30C01810BD1C090020602E00208D
:104D200008B5054805F018FB002383F31188BFF38D
:104D30006F8F0423184602DF09DC000008B5244AFF
:104D4000244B1A6000F060F84FF47A612248D0F8E2
:104D50002436C3F30802C3F309434B4382F4807241
:104D60001E49883201FB02334FF4FA215B00B3FB8A
:104D7000F1F201FB12331A49B3F57A3F28BF013231
:104D8000C1F80429D0F820364FF47A60C3F3080242
:104D9000C3F30943434342F21C5082F4807202F28F
:104DA000172200FB02334FF47A701B0AB3FBF0F2B8
:104DB00000FB12330020B3F5FA7F4FF0010328BF48
:104DC0000132C1F81C27C1F80009C1F8003608BD3E
:104DD0000020A1070403002000C0FF00F82A008083
:104DE0000000125048B1054B054A1B68B3FBF2F3B3
:104DF0005843044B43F00103184770470403002055
:104E000040420F0010D100000122024BC3F80424DD
:104E1000704700BF002008E0084B70B5C31A0D466C
:104E200007499B10044659434022064805F085FC7B
:104E30002B4601462046BDE8704018473409002043
:104E4000B76DDBB668C70000402373B50B4C009309
:104E5000041B0B460D460A49A41061430646094A45
:104E6000094805F096FC011E05DA30462B4602B0D3
:104E7000BDE87040184702B070BD00BF3409002083
:104E8000B76DDBB6FDA7000068C70000F8B50022CB
:104E90000121054640F20510FFF706FC0F4801F01E
:104EA00095F80446B8B901F0B1F82F690C493846B5
:104EB00005F0FFFA031E09DB01263E642D6908494F
:104EC00005F11C0005F0F5FA031E02DA1C46204627
:104ED000F8BDEE64FBE76FF00404F8E7155000003E
:104EE0008CD200001FB500220123CDE902236B46BE
:104EF000084ACDF800D0CDF804D005F078FC0028A1
:104F000005DB43F609520023684602F0FBF905B0C1
:104F10005DF804FB11A8000010B5EFF31184202305
:104F200083F31288BFF36F8F074A136823F00201DF
:104F3000DB07116002D4012005F06DFF84F31188B6
:104F4000BFF36F8F10BD00BF840900200C22104BEF
:104F5000014602FB0033002030B4D3E90E529863BF
:104F6000EFF31180202484F31288BFF36F8F1C6C41
:104F700004F0C00444F002041C6480F31188BFF301
:104F80006F8F1DB12B4630BC0248184730BC7047AC
:104F90003409002068C7000010B4EFF31182202309
:104FA00083F31288BFF36F8F1748016841F0020442
:104FB0000460C80708D482F31188BFF36F8F012003
:104FC0005DF8044B05F01FBF1049D1F80C14C9035C
:104FD000F1D5EFF3118083F31288BFF36F8F0C4983
:104FE0000B6C03F0C00343F002030B6480F31188E1
:104FF000BFF36F8F82F31188BFF36F8F00205DF8CE
:10500000044BFFF7A3BF00BF8409002000E010504D
:1050100034090020022808D0042808D1044B186C59
:1050200010F0070003D1FFF791BF0120FBE77047A5
:1050300034090020C3B21C20014A03FB0020704742
:10504000340900202DE9F041012207463449D1E816
:10505000EF3FC1E8E02F0028F9D133B93149324898
:105060004B60CB608A6005F037FA7B1E012B28D895
:10507000012F06D12D4BD3F8503403F00303012B3D
:105080001FD006F0ECFB0546E8B9294B1B78D3B1DD
:1050900004220646254BC3F80823244CDFF89480ED
:1050A000D4F84C24D4F84C34D20315D503F00303C0
:1050B000012B01D0012F0FD165B386F31188BFF307
:1050C0006F8FBDE8F081EFF31186202383F3128800
:1050D000BFF36F8F0125E0E7BDB1304605F0C3FA9D
:1050E000D4F8403413F0FF03DAD1D4F80821002AB1
:1050F000D6D0C4F80831D4F8083120220123C4F8EE
:105100004034C8F8A0212361CAE70021202006F01E
:105110001CFCE5E70422054BC3F80423D1E700BFDC
:1051200030090020200900205009002000E0105024
:105130000B11002000E100E008B5074806F0EAFA8C
:1051400038B10648FFF7A6FD0448FEF787FD0020AA
:1051500008BD6FF01200FBE7D8C7000061510000E6
:105160000A2838B50446074D04D1AB680D212846FE
:105170005B689847AB6803485B68E1B29847204694
:1051800038BD00BFD8C700002DE9F04340F2063516
:105190004768D00648BF4FF0030C3B7C02EA050588
:1051A00058BFC2F3401C87B001F01F06B5F5837FDE
:1051B000144646EA43168DF803C046D00DD8062D96
:1051C00045D005D8A5B1022D12D06FF0150039E0F9
:1051D000B5F5807FF9D101250AE040F2022295421F
:1051E00037D0B5F5407F36D0B5F5007FEDD1042539
:1051F0000123220303FA01F12FD57B685960B868B7
:1052000080BB5F2E06F01F034FEA561173D83C4A4D
:1052100052F8212084F4803102EB8302D2F88030EE
:10522000C1F30041C4F3404423F4706344EA4104F1
:1052300023F00F031C4344EA8C0444EA0524C2F81B
:105240008040002007B0BDE8F0830925D0E708259D
:10525000CEE70625CCE70525CAE7630344BF7B6894
:105260009960CCE731460DF1020205F0AEFF14F46F
:10527000403F80460CD13146B86805F0BFFFB8F119
:10528000000FDED19DF80210B86801F051F9D8E79F
:105290004FF0000901ABCDE90199CDE90439CDF812
:1052A0000C903146B86803AA05F0D3FE4845C8DB28
:1052B00014F4003314D09DF8033084F48034C4F324
:1052C00000448DF80E308DF80C508DF80D404B4693
:1052D0003146B86803AA01F079F80028CFDAB0E7C0
:1052E000CDE904330DF1030303933146B86803AAF3
:1052F00005F0AFFEF1E7203350F82330FFDE00BFAA
:10530000A8D200004209022A034670B503D0012A40
:1053100018D0CAB170BD0E4E326951680029F9D05B
:10532000012503F01F030C689D400029F2D08A6814
:105330002A4002D030464B6898473CB1236821464A
:105340001C46F2E7034EE7E7034EE5E72346F6E7A0
:10535000BCC70000A0C7000084C7000038B545687E
:10536000A868C0B105F044FF0146A0B9A86801F0E3
:10537000A7F8044688B902460949A86805F022FF43
:1053800022460121DB20FFF78FF92246012140F25E
:105390000D10FFF789F9002038BD6FF00400FBE71E
:1053A00005530000F0B544681646A068227C01F061
:1053B0001F0587B045EA421500286CD0B6F5001FDE
:1053C00004D1294605F06EFF002055E06268607C3C
:1053D000B6F5800F50624FF0000001AA01905060B6
:1053E00039D1B3F1007F14BF052304238DF80430B5
:1053F0000023CDE904230393E3680DF1030723FAA7
:1054000001F111F0010139D1B6F1A07F36D105F0DB
:105410001F035F2D4FEA551003F120033ED8214AA8
:1054200052F8202052F82330DB0727D43A46294689
:10543000A06805F0CAFE163018D002972946A06869
:1054400003AA05F006FE002816DB01222946A06803
:1054500005F0D6FEB8E7B3F1C06F05D0B3F1007F19
:1054600014BF01230223C1E70323BFE73946A06825
:1054700001F068F80028E0DA07B0F0BD3A462946A6
:10548000A06805F0A2FE0028D8D19DF80310A068FE
:1054900001F04EF8D2E76FF08500EDE751F82330C8
:1054A000FFDE00BFA8D2000037B50446002201216C
:1054B000DD20FFF7F9F863680021DD6A01AA2846BC
:1054C00005F0BCFB002819DB019B2A6819791868D4
:1054D00000F090FA002811DB04230822084909484B
:1054E00006F098F9042308220749084806F092F9C3
:1054F00000202469FFF79EFD2060002003B030BD2E
:10550000CC0900203C020020AC090020A0020020B1
:10551000F0B5044688070F4685B048D55A4D95F832
:105520000431D5F80011032B04BF012385F80431A1
:10553000002932D06368994202D0E86906F01AF96E
:1055400000235248C5F8003105F061FF95F8093194
:10555000590702D5286805F016F82168002936D1C8
:105560006368002B70D1FB0740F18B800023464C11
:10557000CDE90133039394F805314BB194F806312A
:10558000002B6AD0D4F8003102930123ADF80C301F
:1055900001A93D4805F076FA73E03C4805F037FF75
:1055A00095F809315A0702D5286804F0ECFF002C61
:1055B000D3D1354B93F80421032A1CBF042283F86E
:1055C0000421324805B0BDE8F04005F0F6BF2E4D8D
:1055D00095F8076126B1D5F8800006F0CBF8BFE753
:1055E000238901919B0002930022002301A905F168
:1055F000B40006F01EF900280CDA042385F8043103
:105600002168D5F8800006F0B5F86368002BD8D083
:10561000012605E095F805315BB16368002BA2D047
:10562000194AD2F80011994210D1012382F80731AA
:10563000C7E795F80661002EEFD0012385F8073102
:105640006368002BECD1BCE70026E9E71946D06976
:1056500006F090F8002EB4D185E7204601A905F0A8
:1056600097F9002894D194F80431032B4FF00103EB
:1056700005D1D4F8002184F80631029286E784F837
:10568000083105B0F0BD00BFEC010020C8020020C9
:105690002DE9F0470569884695F804C11446BCF128
:1056A000010FD0F804A08EB004D06FF015000EB03A
:1056B000BDE8F087D2F80490B9F1000F27D1284651
:1056C00005F059FA08F1FF33012B1CD895F8093180
:1056D0003C2269F30003494685F8093105F11400BD
:1056E00006F057FCB8F1020F0BD195F809313C22B6
:1056F0006FF34103002185F8093105F1780006F0C8
:1057000048FC0020D3E7B8F1000FEED0F9E7D368EA
:1057100013F0030EC9D104AE0AF104070FCF0FC670
:105720000FCF0FC6237897E80300182B86E80300F5
:105730000AD005D8082B34D0102BB6D1634604E02C
:10574000202BB2D1032300E00223A1788DF828306A
:1057500001F00702032A26D0042A26D0002AA4D169
:10576000944611F038018DF827208DF826C09CD181
:105770006278022A02D0012A97D11146E2788DF888
:10578000291002F00602062A11D101228DF82520E7
:10579000D5F8DC20D2F86025002A0DDA00230B931F
:1057A0001BE07346D1E70022DBE70122D9E7002A9C
:1057B0007FF47BAF8DF825208DF80C3000232C4A28
:1057C0000BA901A88DF80D30CDE9012901F000FAEF
:1057D0009AF83030003B18BF012395F8092163F394
:1057E000820285F8092194F90320E378002AFFF664
:1057F0005CAF5B063FF559AF08F1FF33012B1BD9B6
:10580000B8F1000F7FF47DAF0FCC05F178060FC61D
:10581000236805F18C04336004AE0FCE0FC40FCEA5
:105820000FC496E8030084E8030095F8093143F0BB
:10583000020385F8093164E7274605F114060FCF06
:105840000FC63B6804AF336005F128060FCF0FC6C3
:105850000FCF0FC697E8030086E8030095F80931DB
:10586000B8F1020F43F0010385F80931CCD048E7C5
:105870000048E801F8B5022907460D4616460469B6
:1058800008D194F8093103F00303032B17D06FF00C
:105890000400F8BD01290BD194F8093113F0010F70
:1058A000F5D0042E72D8DFE806F0184E4E6962007B
:1058B0000029ECD194F8093113F0020FF0E7282207
:1058C00004F18C01A01806F047FB0028DFD1226A02
:1058D000D4F884309A42E4D0D9E794F80431012B0B
:1058E000D5D1002384F80551A4F8063184F8083195
:1058F0003C697B6894F8052104F1DC05012A0CBFA2
:1059000004F1280104F18C0128461A6805F0E7FC2F
:105910000028BCD1022384F8043194F809315B07D4
:1059200037D52B4B2061A36003232068E360211D42
:1059300004F0D2FD002837DA284605F068FD01237F
:1059400084F80431A3E794F80431022B9FD194F832
:105950000531AB421AD1022E4FF003031FD1B5FA25
:1059600085F56D0984F8043184F806511CE094F83B
:105970000431042B8BD12946204622E094F80431CF
:10598000022B13D194F80531AB4211D06FF0150002
:105990007FE7204605F00FF800EAE07079E784F829
:1059A0000431012384F80631002072E7012B06D070
:1059B000012304F1DC0084F8073105F0FEFD2946DF
:1059C000386905F0D8F8012384F80431ECE700BF0A
:1059D0005BAA0000036803F01F025F2B02604FEA1E
:1059E00053129ABF024B53F822000020704700BFA9
:1059F00048D300002DE9F04F1546074640F2FF1945
:105A0000DFF8D0A1DFF8D0B185B000EB8101B94259
:105A100003D1002005B0BDE8F08F3B68C3F3C3227B
:105A2000082AC3F3080400F2CE804C451AF802801D
:105A30004FEA136310D0382B1BD94E2B40F0C68091
:105A4000C5F81046012603A80394FFF7C3FF039B84
:105A500006FA03F3436038E0382B08D94E2B40F0A8
:105A6000B5804FF0FF33C5F810360437CFE74FF05D
:105A7000FF34382B00F2AA80DFE803F01D222964EE
:105A80002C3264A8A8A8A8A8A8676A6D7073767954
:105A9000A8A87C888B8EA8A8A8A8A8A8A8A8A8A809
:105AA000A8A8A8A8A8A8A8A8A8A8A8A8A8A8A8A876
:105AB000A8A8A8A89100C5F80446631CC2D1D4E7E1
:105AC000C5F80C46621CD0D00026324616E0C5F858
:105AD0001046F2E7661CC5F80046C6D0002604E072
:105AE000C5F80446601CC0D0012603A80394FFF744
:105AF00071FF0122039B02FA03F383603B68039466
:105B000003F40040002818BF002203A818BF012694
:105B100001930092FFF75EFF039C019B00EB840062
:105B2000D0F88040C3F3412C009A4FEA082343EA9F
:105B30008C03134304EA0B04234343EA4603C0F8EF
:105B4000803092E7C5F80846BCE7C5F86445C9E768
:105B5000C5F86445B6E7C5F86845C3E7C5F86845C4
:105B6000B0E7C5F86C45ADE7C5F87045BAE7C5F8CC
:105B70006045B7E7C5F86045621C3B683FF475AF08
:105B8000C3F30043002B7FF45DAFADE7C5F8644578
:105B9000F2E7C5F86845EFE7C5F86C45ECE703A800
:105BA0000394FFF717FF039B00EB8300D0F88030CE
:105BB00023F0E04343F08043C0F88030631C3FF49F
:105BC00054AF012681E76FF0150023E76FF08500E1
:105BD00020E700BF4BDC0000F0F0FCFF2DE9F041B6
:105BE00004460D46476805F03AFE88B12021EFF3E0
:105BF00011831A4681F31288BFF36F8F60680068C3
:105C0000D0F83001D0B983F31188BFF36F8FEEE77E
:105C10001E4B1B78002BE9D04FF0200864266368E8
:105C20001B68D3F83031FBB9012005F0B5F8013E0F
:105C3000F5D10021202005F088FEEFE77B6A0020E7
:105C40001D706368796A1B68C3F83C170121C3F8AB
:105C50004017C3F83001D3F83001196582F3118879
:105C6000BFF36F8FBDE8F081EFF311831A4688F31D
:105C70001288BFF36F8F61680968D1F8301100296D
:105C8000DCD183F31188BFF36F8FD2E70B110020B3
:105C900070B40D4CD4E90065901B63EB050140091D
:105CA00040EAC1604101891945EBD065C4E900159E
:105CB000002400250549C1E90023054BC3E900453F
:105CC00070BC01F0E7BF00BF3006002018060020BE
:105CD0002806002008B500220121E420FEF7E4FC9C
:105CE000164A0020D2F8183723F44033C2F8183788
:105CF00000F088FD002820DB0120114900F00EFE95
:105D000000281ADB00F058FD0E4B20F01F00C3E9FD
:105D100000010D4B0022C3E900014FF0FF304FF0AE
:105D2000FF310A4BC3E90001094B0A49187A00F018
:105D300053FD67220020084B1A6008BD00200E505A
:105D40000003002030060020100600201806002066
:105D5000F8020020915C0000F409002008B500F072
:105D60002BFD064AD2E90032C01A054B61EB020155
:105D7000C3E90001400940EAC16008BD30060020C7
:105D800028060020F7B5224B0146224F187A224BF5
:105D9000D7E90056D3E900239E4208BF954211D1AE
:105DA000B1F1806F0ED24901012938BF01210122D2
:105DB0004D1946F10006C7E9005603B0BDE8F040B2
:105DC00000F036BE154BDFF858C0D3E90043DCE9DC
:105DD000002CA41843EB0C0C4FF0200E2246634617
:105DE000C1FB0E23954276EB0301C7E900230DD2D8
:105DF000291B66EB0C04C82974F10004B4BF01210F
:105E00000021009100F0DCFD03B0F0BD0021F8E7B7
:105E1000F80200202006002018060020300600208E
:105E200028060020064BD3F840231C2A05D1D3F8BE
:105E30004403431E5842584170470020704700BF3A
:105E400000C0FF0003689A070CD50368DB070DD577
:105E50000922074BC3F80C250F22C3F804250122A1
:105E60001A60FEE7034B0360EF3B0360704700BF1F
:105E700000801050F000FA5008B50123454A46480A
:105E8000C2F80038454AD2F840231C2A04BF444ACD
:105E9000C2F80C34FFF7D6FF0830FFF7D3FF083005
:105EA000FFF7D0FF0830FFF7CDFF00F5F470FFF7E4
:105EB000C9FF3C4AD2F88C3043F44063C2F88C30BE
:105EC0000022D30003F57F0303F54043D3F8001409
:105ED00001310AD0D3F8001439B1D3F800140132DB
